:020000040800F2
:10000000600200206D010008710100087301000802
:100010007501000877010008790100080000000060
:100020000000000000000000000000007B0100084C
:100030007D010008000000007F0100088101000828
:100040008301000883010008830100088301000880
:100050008301000883010008830100088301000870
:100060008301000883010008830100088301000860
:100070008301000883010008830100088301000850
:100080008301000883010008830100088301000840
:100090008301000883010008830100088301000830
:1000A0008301000883010008830100088301000820
:1000B0008301000883010008830100088301000810
:1000C0008301000883010008830100088301000800
:1000D00083010008830100088301000883010008F0
:1000E00083010008830100088301000800F002F882
:1000F00000F02CF80AA090E8000C82448344AAF196
:100100000107DA4501D100F021F8AFF2090EBAE893
:100110000F0013F0010F18BFFB1A43F0010318473B
:100120004C0100005C010000002300240025002693
:10013000103A28BF78C1FBD8520728BF30C148BF4A
:100140000B6070471FB51FBD10B510BD00F057F80C
:100150001146FFF7F7FF00F028F800F075F803B438
:10016000FFF7F2FF03BC00F079F8000008480047F1
:10017000FEE7FEE7FEE7FEE7FEE7FEE7FEE7FEE757
:10018000FEE7FEE703480449024A044B70470000BB
:10019000ED000008600000206002002060000020E8
:1001A00000E0401E0028FCD170471048806940F0F4
:1001B00020000E4988610E48006820F470600C49E8
:1001C00008600846006840F4407008600DE00420B4
:1001D0000749143108600748FFF7E2FF042004498B
:1001E000103108600348FFF7DBFFF0E70010024022
:1001F00000140140FFFF2F0070477047704775469D
:1002000000F028F8AE4605006946534620F0070086
:10021000854618B020B5FFF7B5FFBDE820404FF088
:1002200000064FF000074FF000084FF0000B21F0E0
:100230000701AC46ACE8C009ACE8C009ACE8C009AD
:10024000ACE8C0098D4670470446AFF300802046F5
:10025000FFF785FF00487047000000200149182083
:10026000ABBEFEE726000200704700007C020008DB
:0C027000000000206002000028010008CF
:04000005080000ED02
:00000001FF
